{
  "contractName": "ToDo",
  "abi": [
    {
      "inputs": [
        {
          "internalType": "string",
          "name": "_content",
          "type": "string"
        }
      ],
      "name": "addTask",
      "outputs": [],
      "stateMutability": "nonpayable",
      "type": "function"
    },
    {
      "inputs": [],
      "name": "getTasks",
      "outputs": [
        {
          "components": [
            {
              "internalType": "uint256",
              "name": "id",
              "type": "uint256"
            },
            {
              "internalType": "string",
              "name": "content",
              "type": "string"
            },
            {
              "internalType": "bool",
              "name": "completed",
              "type": "bool"
            },
            {
              "internalType": "uint256",
              "name": "timestamp",
              "type": "uint256"
            }
          ],
          "internalType": "struct ToDo.Task[]",
          "name": "",
          "type": "tuple[]"
        }
      ],
      "stateMutability": "view",
      "type": "function",
      "constant": true
    },
    {
      "inputs": [
        {
          "internalType": "uint256",
          "name": "_taskId",
          "type": "uint256"
        }
      ],
      "name": "toggleTaskCompletion",
      "outputs": [],
      "stateMutability": "nonpayable",
      "type": "function"
    }
  ],
  "bytecode": "0x608060405234801561001057600080fd5b506109d6806100206000396000f3fe608060405234801561001057600080fd5b50600436106100415760003560e01c806304a87e38146100465780636723856214610064578063a9bda58714610080575b600080fd5b61004e61009c565b60405161005b9190610740565b60405180910390f35b61007e60048036038101906100799190610593565b6101f8565b005b61009a600480360381019061009591906105d4565b6102f9565b005b60606000803373ffffffffffffffffffffffffffffffffffffffff1673ffffffffffffffffffffffffffffffffffffffff168152602001908152602001600020805480602002602001604051908101604052809291908181526020016000905b828210156101ef57838290600052602060002090600402016040518060800160405290816000820154815260200160018201805461013990610870565b80601f016020809104026020016040519081016040528092919081815260200182805461016590610870565b80156101b25780601f10610187576101008083540402835291602001916101b2565b820191906000526020600020905b81548152906001019060200180831161019557829003601f168201915b505050505081526020016002820160009054906101000a900460ff16151515158152602001600382015481525050815260200190600101906100fc565b50505050905090565b6000604051806080016040528060015481526020018381526020016000151581526020014281525090506000803373ffffffffffffffffffffffffffffffffffffffff1673ffffffffffffffffffffffffffffffffffffffff1681526020019081526020016000208190806001815401808255809150506001900390600052602060002090600402016000909190919091506000820151816000015560208201518160010190805190602001906102b0929190610473565b5060408201518160020160006101000a81548160ff021916908315150217905550606082015181600301555050600160008154809291906102f0906108a2565b91905055505050565b60008060003373ffffffffffffffffffffffffffffffffffffffff1673ffffffffffffffffffffffffffffffffffffffff168152602001908152602001600020905060005b818054905081101561046e5782828281548110610384577f4e487b7100000000000000000000000000000000000000000000000000000000600052603260045260246000fd5b906000526020600020906004020160000154141561045b578181815481106103d5577f4e487b7100000000000000000000000000000000000000000000000000000000600052603260045260246000fd5b906000526020600020906004020160020160009054906101000a900460ff161582828154811061042e577f4e487b7100000000000000000000000000000000000000000000000000000000600052603260045260246000fd5b906000526020600020906004020160020160006101000a81548160ff02191690831515021790555061046e565b8080610466906108a2565b91505061033e565b505050565b82805461047f90610870565b90600052602060002090601f0160209004810192826104a157600085556104e8565b82601f106104ba57805160ff19168380011785556104e8565b828001600101855582156104e8579182015b828111156104e75782518255916020019190600101906104cc565b5b5090506104f591906104f9565b5090565b5b808211156105125760008160009055506001016104fa565b5090565b600061052961052484610793565b610762565b90508281526020810184848401111561054157600080fd5b61054c84828561082e565b509392505050565b600082601f83011261056557600080fd5b8135610575848260208601610516565b91505092915050565b60008135905061058d81610989565b92915050565b6000602082840312156105a557600080fd5b600082013567ffffffffffffffff8111156105bf57600080fd5b6105cb84828501610554565b91505092915050565b6000602082840312156105e657600080fd5b60006105f48482850161057e565b91505092915050565b600061060983836106ce565b905092915050565b600061061c826107d3565b61062681856107f6565b935083602082028501610638856107c3565b8060005b85811015610674578484038952815161065585826105fd565b9450610660836107e9565b925060208a0199505060018101905061063c565b50829750879550505050505092915050565b61068f81610818565b82525050565b60006106a0826107de565b6106aa8185610807565b93506106ba81856020860161083d565b6106c381610978565b840191505092915050565b60006080830160008301516106e66000860182610731565b50602083015184820360208601526106fe8282610695565b91505060408301516107136040860182610686565b5060608301516107266060860182610731565b508091505092915050565b61073a81610824565b82525050565b6000602082019050818103600083015261075a8184610611565b905092915050565b6000604051905081810181811067ffffffffffffffff8211171561078957610788610949565b5b8060405250919050565b600067ffffffffffffffff8211156107ae576107ad610949565b5b601f19601f8301169050602081019050919050565b6000819050602082019050919050565b600081519050919050565b600081519050919050565b6000602082019050919050565b600082825260208201905092915050565b600082825260208201905092915050565b60008115159050919050565b6000819050919050565b82818337600083830152505050565b60005b8381101561085b578082015181840152602081019050610840565b8381111561086a576000848401525b50505050565b6000600282049050600182168061088857607f821691505b6020821081141561089c5761089b61091a565b5b50919050565b60006108ad82610824565b91507fffffffffffffffffffffffffffffffffffffffffffffffffffffffffffffffff8214156108e0576108df6108eb565b5b600182019050919050565b7f4e487b7100000000000000000000000000000000000000000000000000000000600052601160045260246000fd5b7f4e487b7100000000000000000000000000000000000000000000000000000000600052602260045260246000fd5b7f4e487b7100000000000000000000000000000000000000000000000000000000600052604160045260246000fd5b6000601f19601f8301169050919050565b61099281610824565b811461099d57600080fd5b5056fea264697066735822122052b1d3b9581039efac3397d2b13cde4049d49a2a9aff36a095d55b55deaebddd64736f6c63430008000033",
  "immutableReferences": {},
  "source": "// SPDX-License-Identifier: MIT\r\npragma solidity ^0.8.0;\r\n\r\ncontract ToDo {\r\n    struct Task {\r\n        uint id;\r\n        string content;\r\n        bool completed;\r\n        uint timestamp;\r\n    }\r\n\r\n    mapping(address => Task[]) private userTasks;\r\n    uint private taskId;\r\n\r\n    function addTask(string memory _content) public {\r\n        Task memory newTask = Task(taskId, _content, false, block.timestamp);\r\n        userTasks[msg.sender].push(newTask);\r\n        taskId++;\r\n    }\r\n\r\n    function getTasks() public view returns (Task[] memory) {\r\n        return userTasks[msg.sender];\r\n    }\r\n\r\n    function toggleTaskCompletion(uint _taskId) public {\r\n        Task[] storage tasks = userTasks[msg.sender];\r\n        for (uint i = 0; i < tasks.length; i++) {\r\n            if (tasks[i].id == _taskId) {\r\n                tasks[i].completed = !tasks[i].completed;\r\n                break;\r\n            }\r\n        }\r\n    }\r\n}\r\n",
  "sourcePath": "C:\\xampp\\htdocs\\php_Todo\\contracts\\ToDo.sol",
  "compiler": {
    "name": "solc",
    "version": "0.8.0+commit.c7dfd78e.Emscripten.clang"
  },
  "schemaVersion": "3.4.16",
  "updatedAt": "2024-12-27T04:52:13.969Z",
  "networkType": "ethereum",
  "devdoc": {
    "kind": "dev",
    "methods": {},
    "version": 1
  },
  "userdoc": {
    "kind": "user",
    "methods": {},
    "version": 1
  }
}